:020000040800F2
:1000000000280020450C0008E90B0008EF0B000851
:10001000F50B0008FB0B0008010C000800000000B5
:10002000000000000000000000000000070C0008B5
:10003000130C0008000000001F0C00082B0C000827
:100040008D0C00088D0C00088D0C00088D0C00082C
:100050008D0C00088D0C00088D0C00088D0C00081C
:100060008D0C00088D0C00088D0C00088D0C00080C
:100070008D0C00088D0C00088D0C00088D0C0008FC
:100080008D0C00088D0C00088D0C00088D0C0008EC
:100090008D0C00088D0C00088D0C00088D0C0008DC
:1000A0008D0C00088D0C00088D0C00088D0C0008CC
:1000B0008D0C00088D0C0008000000008D0C00085D
:1000C0008D0C000800000000000000008D0C0008EE
:1000D000000000008D0C00088D0C000800000000DE
:1000E0008D0C00088D0C00088D0C0008000000002D
:1000F0000000000000000000000000000000000000
:0C01000000000000000000005FF808F1A3
:10010C0010B5054C237833B9044B13B10448AFF345
:10011C0000800123237010BD0C00002000000000A3
:10012C00981A000808B5034B1BB103490348AFF3F9
:10013C00008008BD0000000010000020981A000884
:10014C0080B582B000AF78607B68002B02D07B68F2
:10015C000C2B44D100221021B14801F077F8012278
:10016C002021AF4801F072F801224021AC4801F087
:10017C006DF801228021AA4801F068F801224FF4A1
:10018C008071A74801F062F801224FF40071A44875
:10019C0001F05CF801224FF48061A14801F056F89F
:1001AC0001224FF400619E4801F050F801224FF4F7
:1001BC0080519B4801F04AF801224FF400519848B5
:1001CC0001F044F801224FF48041954801F03EF8CB
:1001DC0001224FF40041924801F038F81BE37B6890
:1001EC00012B44D1012210218D4801F02FF800225F
:1001FC0020218B4801F02AF801224021884801F087
:10020C0025F801228021864801F020F801224FF4C4
:10021C008071834801F01AF801224FF40071804874
:10022C0001F014F801224FF480617D4801F00EF8C2
:10023C0001224FF400617A4801F008F801224FF4D2
:10024C008051774801F002F801224FF400517448B4
:10025C0000F0FCFF01224FF48041714800F0F6FFE2
:10026C0001224FF400416E4800F0F0FFD3E27B68AE
:10027C00022B44D101221021694800F0E7FF012232
:10028C002021674800F0E2FF00224021644800F082
:10029C00DDFF01228021624800F0D8FF01224FF4DB
:1002AC0080715F4800F0D2FF01224FF400715C486E
:1002BC0000F0CCFF01224FF48061594800F0C6FFDA
:1002CC0001224FF40061564800F0C0FF01224FF4A8
:1002DC008051534800F0BAFF01224FF400515048AE
:1002EC0000F0B4FF01224FF480414D4800F0AEFF06
:1002FC0001224FF400414A4800F0A8FF8BE27B68D2
:10030C00032B44D101221021454800F09FFF01220C
:10031C002021434800F09AFF01224021404800F080
:10032C0095FF002280213E4800F090FF01224FF4FF
:10033C0080713B4800F08AFF01224FF4007138486D
:10034C0000F084FF01224FF48061354800F07EFFFD
:10035C0001224FF40061324800F078FF01224FF483
:10036C0080512F4800F072FF01224FF400512C48AD
:10037C0000F06CFF01224FF48041294800F066FF29
:10038C0001224FF40041264800F060FF43E27B68F5
:10039C00042B47D101221021214800F057FF0122E4
:1003AC0020211F4800F052FF012240211C4800F080
:1003BC004DFF012280211A4800F048FF00224FF423
:1003CC008071174800F042FF01224FF4007114486D
:1003DC0000F03CFF01224FF48061114800F036FF21
:1003EC0001224FF400610E4800F030FF01224FF45F
:1003FC0080510B4800F02AFF01224FF400510848AD
:10040C0000F024FF01224FF48041054800F01EFF4C
:10041C0001224FF40041024800F018FFFBE100BF3D
:10042C00000801407B68052B44D101221021B14802
:10043C0000F00CFF01222021AE4800F007FF012242
:10044C004021AC4800F002FF01228021A94800F0B5
:10045C00FDFE01224FF48071A64800F0F7FE002249
:10046C004FF40071A34800F0F1FE01224FF48061BB
:10047C00A04800F0EBFE01224FF400619D4800F013
:10048C00E5FE01224FF480519A4800F0DFFE012274
:10049C004FF40051974800F0D9FE01224FF48041EF
:1004AC00944800F0D3FE01224FF40041914800F033
:1004BC00CDFEB0E17B68062B44D1012210218D4882
:1004CC0000F0C4FE012220218A4800F0BFFE012268
:1004DC004021884800F0BAFE01228021854800F0B6
:1004EC00B5FE01224FF48071824800F0AFFE01226C
:1004FC004FF400717F4800F0A9FE00224FF4806198
:10050C007C4800F0A3FE01224FF40061794800F012
:10051C009DFE01224FF48051764800F097FE012297
:10052C004FF40051734800F091FE01224FF48041CA
:10053C00704800F08BFE01224FF400416D4800F032
:10054C0085FE68E17B68072B44D1012210216948A4
:10055C0000F07CFE01222021664800F077FE01228B
:10056C004021644800F072FE01228021614800F0B5
:10057C006DFE01224FF480715E4800F067FE01228F
:10058C004FF400715B4800F061FE01224FF4806172
:10059C00584800F05BFE00224FF40061554800F013
:1005AC0055FE01224FF48051524800F04FFE0122BB
:1005BC004FF400514F4800F049FE01224FF48041A6
:1005CC004C4800F043FE01224FF40041494800F032
:1005DC003DFE20E17B68082B44D1012210214548C7
:1005EC0000F034FE01222021424800F02FFE0122AF
:1005FC004021404800F02AFE012280213D4800F0B5
:10060C0025FE01224FF480713A4800F01FFE0122B2
:10061C004FF40071374800F019FE01224FF480614D
:10062C00344800F013FE01224FF40061314800F011
:10063C000DFE00224FF480512E4800F007FE0122DF
:10064C004FF400512B4800F001FE01224FF4804181
:10065C00284800F0FBFD01224FF40041254800F032
:10066C00F5FDD8E07B68092B46D1012210212148E9
:10067C0000F0ECFD012220211E4800F0E7FD0122D4
:10068C0040211C4800F0E2FD01228021194800F0B5
:10069C00DDFD01224FF48071164800F0D7FD0122D8
:1006AC004FF40071134800F0D1FD01224FF480612A
:1006BC00104800F0CBFD01224FF400610D4800F012
:1006CC00C5FD01224FF480510A4800F0BFFD002205
:1006DC004FF40051074800F0B9FD01224FF480415E
:1006EC00044800F0B3FD01224FF40041014800F032
:1006FC00ADFD90E0000801407B680A2B44D101223B
:10070C001021474800F0A2FD01222021444800F0AE
:10071C009DFD01224021424800F098FD01228021DC
:10072C003F4800F093FD01224FF480713C4800F0EB
:10073C008DFD01224FF40071394800F087FD012234
:10074C004FF48061364800F081FD01224FF40061C6
:10075C00334800F07BFD01224FF48051304800F00B
:10076C0075FD01224FF400512D4800F06FFD002261
:10077C004FF480412A4800F069FD01224FF40041FA
:10078C00274800F063FD46E07B680B2B43D1012228
:10079C001021234800F05AFD01222021204800F0AE
:1007AC0055FD012240211E4800F050FD0122802100
:1007BC001B4800F04BFD01224FF48071184800F0EB
:1007CC0045FD01224FF40071154800F03FFD012258
:1007DC004FF48061124800F039FD01224FF40061A2
:1007EC000F4800F033FD01224FF480510C4800F00B
:1007FC002DFD01224FF40051094800F027FD012284
:10080C004FF48041064800F021FD00224FF40041D6
:10081C00034800F01BFD00BF0837BD4680BD00BF7C
:10082C000008014080B582B000AF78607B68002B77
:10083C0005D100221021394800F008FD69E07B68E1
:10084C00012B05D100222021344800F0FFFC60E090
:10085C007B68022B05D100224021304800F0F6FCC9
:10086C0057E07B68032B05D1002280212B4800F038
:10087C00EDFC4EE07B68042B06D100224FF4807116
:10088C00264800F0E3FC44E07B68052B06D10022EF
:10089C004FF40071214800F0D9FC3AE07B68062B3C
:1008AC0006D100224FF480611C4800F0CFFC30E0F0
:1008BC007B68072B06D100224FF40061174800F02B
:1008CC00C5FC26E07B68082B06D100224FF4805132
:1008DC00124800F0BBFC1CE07B68092B06D10022FF
:1008EC004FF400510D4800F0B1FC12E07B680A2B6C
:1008FC0006D100224FF48041084800F0A7FC08E024
:10090C007B680B2B05D100224FF40041034800F00B
:10091C009DFC00BF0837BD4680BD00BF00080140EC
:10092C0080B500AF00221021214800F08FFC00227E
:10093C0020211F4800F08AFC002240211C4800F0B6
:10094C0085FC002280211A4800F080FC00224FF424
:10095C008071174800F07AFC00224FF400711448A3
:10096C0000F074FC00224FF48061114800F06EFC22
:10097C0000224FF400610E4800F068FC00224FF496
:10098C0080510B4800F062FC00224FF400510848E3
:10099C0000F05CFC00224FF48041054800F056FC4E
:1009AC0000224FF40041024800F050FC00BF80BD13
:1009BC000008014080B500AF01221021214800F051
:1009CC0045FC012220211F4800F040FC012240215F
:1009DC001C4800F03BFC012280211A4800F036FC38
:1009EC0001224FF48071174800F030FC01224FF4C3
:1009FC000071144800F02AFC01224FF48061114868
:100A0C0000F024FC01224FF400610E4800F01EFCA3
:100A1C0001224FF480510B4800F018FC01224FF4D6
:100A2C000051084800F012FC01224FF480410548A7
:100A3C0000F00CFC01224FF40041024800F006FCCF
:100A4C0000BF80BD0008014080B582B000AF00F04F
:100A5C0019F900F01CF800F055F805233B60002351
:100A6C007B607B680D2B02D1FFF75AFF04E0FFF788
:100A7C00A1FF3868FFF7D6FE7868FFF761FB7B684B
:100A8C0001337B604FF47A7000F05EF9E9E780B5D2
:100A9C0090B000AF07F1180328220021184600F08F
:100AAC00EDFF3B1D00221A605A609A60DA601A61F1
:100ABC000223BB610123BB621023FB6200237B6317
:100ACC0007F11803184600F0D9FB0346002B01D0A0
:100ADC0000F04CF80F237B600023BB600023FB600D
:100AEC0000233B6100237B613B1D0021184600F075
:100AFC0045FE0346002B01D000F038F800BF40370C
:100B0C00BD4680BD80B586B000AF07F1080300225A
:100B1C001A605A609A60DA60124B9B69114A43F072
:100B2C00040393610F4B9B6903F004037B607B68A8
:100B3C0000224FF6F0710C4800F088FB4FF6F07372
:100B4C00BB600123FB6000233B6102237B6107F147
:100B5C0008031946044800F0FFF900BF1837BD46DA
:100B6C0080BD00BF001002400008014080B400AFFF
:100B7C0072B600BFFEE7000080B485B000AF154B25
:100B8C009B69144A43F001039361124B9B6903F078
:100B9C000103BB60BB680F4BDB690E4A43F080530B
:100BAC00D3610C4BDB6903F080537B607B680A4B91
:100BBC005B68FB60FB6823F0E063FB60FB6843F061
:100BCC008063FB60044AFB68536000BF1437BD466A
:100BDC0080BC7047001002400000014080B400AFA0
:100BEC00FEE780B400AFFEE780B400AFFEE780B450
:100BFC0000AFFEE780B400AFFEE780B400AF00BFEB
:100C0C00BD4680BC704780B400AF00BFBD4680BC01
:100C1C00704780B400AF00BFBD4680BC704780B544
:100C2C0000AF00F075F800BF80BD80B400AF00BF0E
:100C3C00BD4680BC70470000FFF7F7FF0B480C491E
:100C4C000C4A002302E0D458C4500433C4188C421C
:100C5C00F9D3094A094C002301E013600432A24283
:100C6C00FBD300F0E7FEFFF7EFFE7047000000201B
:100C7C000C000020DC1A00080C0000202C000020C6
:100C8C00FEE7000080B500AF084B1B68074A43F035
:100C9C0010031360032000F02BF90F2000F008F86C
:100CAC00FFF76AFF0023184680BD00BF00200240FA
:100CBC0080B582B000AF7860124B1A68124B1B786B
:100CCC0019464FF47A73B3FBF1F3B2FBF3F3184606
:100CDC0000F035F90346002B01D001230EE07B68B0
:100CEC000F2B0AD8002279684FF0FF3000F00BF977
:100CFC00064A7B681360002300E00123184608377E
:100D0C00BD4680BD0000002008000020040000202B
:100D1C0080B400AF054B1B781A46054B1B68134477
:100D2C00034A136000BFBD4680BC7047080000201A
:100D3C002800002080B400AF024B1B681846BD464B
:100D4C0080BC70472800002080B584B000AF78606C
:100D5C00FFF7F0FFB8607B68FB60FB68B3F1FF3F07
:100D6C0005D00A4B1B781A46FB681344FB6000BF86
:100D7C00FFF7E0FF0246BB68D31AFA689A42F7D82D
:100D8C0000BF00BF1037BD4680BD00BF080000206B
:100D9C0080B485B000AF78607B6803F00703FB601C
:100DAC000C4BDB68BB60BA684FF6FF031340BB60AB
:100DBC00FB681A02BB68134343F0BF6343F4003370
:100DCC00BB60044ABB68D36000BF1437BD4680BC0F
:100DDC00704700BF00ED00E080B400AF044BDB684F
:100DEC001B0A03F007031846BD4680BC704700BFC2
:100DFC0000ED00E080B483B000AF03463960FB71B6
:100E0C0097F90730002B0ADB3B68DAB20C4997F9EB
:100E1C0007301201D2B20B4483F800230AE03B687E
:100E2C00DAB20849FB7903F00F03043B1201D2B28A
:100E3C000B441A7600BF0C37BD4680BC704700BF10
:100E4C0000E100E000ED00E080B489B000AFF86094
:100E5C00B9607A60FB6803F00703FB61FB69C3F1BF
:100E6C000703042B28BF0423BB61FB690433062B47
:100E7C0002D9FB69033B00E000237B614FF0FF329A
:100E8C00BB6902FA03F3DA43BB681A407B699A40E8
:100E9C004FF0FF317B6901FA03F3D9437B680B40B8
:100EAC00134318462437BD4680BC704780B582B0CA
:100EBC0000AF78607B68013BB3F1807F01D30123E5
:100ECC000FE00A4A7B68013B53600F214FF0FF3063
:100EDC00FFF790FF054B00229A60044B07221A6023
:100EEC00002318460837BD4680BD00BF10E000E067
:100EFC0080B582B000AF78607868FFF749FF00BF1B
:100F0C000837BD4680BD80B586B000AF0346B960DA
:100F1C007A60FB7300237B61FFF75EFF78617A6870
:100F2C00B9687869FFF790FF024697F90F301146C0
:100F3C001846FFF75FFF00BF1837BD4680BD80B570
:100F4C0082B000AF78607868FFF7B0FF03461846B0
:100F5C000837BD4680BD000080B48BB000AF786010
:100F6C00396000237B6200233B6248E101227B6AEB
:100F7C0002FA03F3FB613B681B68FA691340BB611F
:100F8C00BA69FB699A4240F037813B685B68A34AB7
:100F9C0093425ED0A14A934275D8A14A934258D04D
:100FAC009F4A93426FD89F4A934252D09D4A934294
:100FBC0069D89D4A93424CD09B4A934263D89B4A32
:100FCC00934246D0994A93425DD8122B2AD8122BC1
:100FDC0059D801A252F823F05F100008391000080C
:100FEC004B1000088D100008931000089310000897
:100FFC009310000893100008931000089310000839
:10100C009310000893100008931000089310000828
:10101C00931000089310000893100008411000086A
:10102C0055100008824A934213D02CE03B68DB68D1
:10103C003B6229E03B68DB6804333B6224E03B689D
:10104C00DB6808333B621FE03B68DB680C333B62B8
:10105C001AE03B689B68002B02D104233B6213E02F
:10106C003B689B68012B05D108233B627B68FA69BE
:10107C001A6109E008233B627B68FA695A6103E054
:10108C0000233B6200E000BFBB69FF2B01D87B68EB
:10109C0001E07B6804337B61BB69FF2B02D87B6A60
:1010AC009B0002E07B6A083B9B003B617B691A68F2
:1010BC000F213B6901FA03F3DB431A40396A3B69A0
:1010CC0001FA03F31A437B691A603B685B6803F00F
:1010DC008053002B00F09080564B9B69554A43F08F
:1010EC0001039361534B9B6903F00103BB60BB6825
:1010FC00514A7B6A9B08023352F82330FB607B6AAF
:10110C0003F003039B000F2202FA03F3DB43FA689C
:10111C001340FB607B68494A93420DD07B68484A78
:10112C00934207D07B68474A934201D1022304E0E3
:10113C00032302E0012300E000237A6A02F0030299
:10114C0092009340FA681343FB603B497B6A9B080F
:10115C000233FA6841F823203B685B6803F4801380
:10116C00002B06D0384B9A683749BB6913438B6008
:10117C0006E0354B9A68BB69DB43334913408B60FF
:10118C003B685B6803F40013002B06D02E4BDA6827
:10119C002D49BB691343CB6006E02B4BDA68BB6966
:1011AC00DB4329491340CB603B685B6803F4003395
:1011BC00002B06D0244B5A682349BB6913434B6060
:1011CC0006E0214B5A68BB69DB431F4913404B6057
:1011DC003B685B6803F48033002B06D01A4B1A680B
:1011EC001949BB6913430B6006E0174B1A68BB69BE
:1011FC00DB43154913400B607B6A01337B623B6810
:10120C001A687B6A22FA03F3002B7FF4AFAE00BF9F
:10121C0000BF2C37BD4680BC704700BF00003210A9
:10122C0000003110000022100000211000001210EC
:10123C0000001110001002400000014000080140A5
:10124C00000C0140001001400004014080B483B048
:10125C0000AF78600B467B8013467B707B78002B4D
:10126C0003D07A887B681A6103E07B881A047B6858
:10127C001A6100BF0C37BD4680BC704780B586B084
:10128C0000AF78607B68002B01D101236CE27B6896
:10129C001B6803F00103002B00F08780924B5B6806
:1012AC0003F00C03042B0CD08F4B5B6803F00C0386
:1012BC00082B12D18C4B5B6803F48033B3F5803F61
:1012CC000BD1894B1B6803F40033002B6CD07B686B
:1012DC005B68002B68D1012346E27B685B68B3F541
:1012EC00803F06D1804B1B687F4A43F480331360E8
:1012FC002EE07B685B68002B0CD17B4B1B687A4A19
:10130C0023F480331360784B1B68774A23F48023D3
:10131C0013601DE07B685B68B3F5A02F0CD1724B9A
:10132C001B68714A43F4802313606F4B1B686E4A31
:10133C0043F4803313600BE06B4B1B686A4A23F455
:10134C0080331360684B1B68674A23F48023136057
:10135C007B685B68002B13D0FFF7ECFC386108E06E
:10136C00FFF7E8FC02463B69D31A642B01D903232F
:10137C00FAE15D4B1B6803F40033002BF0D014E052
:10138C00FFF7D8FC386108E0FFF7D4FC02463B6954
:10139C00D31A642B01D90323E6E1534B1B6803F4E6
:1013AC000033002BF0D100E000BF7B681B6803F01A
:1013BC000203002B63D04C4B5B6803F00C03002B37
:1013CC000BD0494B5B6803F00C03082B1CD1464B2C
:1013DC005B6803F48033002B16D1434B1B6803F07E
:1013EC000203002B05D07B681B69012B01D0012364
:1013FC00BAE13D4B1B6823F0F8027B685B69DB00AC
:10140C00394913430B603AE07B681B69002B20D0F1
:10141C00364B01221A60FFF78DFC386108E0FFF7AC
:10142C0089FC02463B69D31A022B01D903239BE1A9
:10143C002D4B1B6803F00203002BF0D02A4B1B68CA
:10144C0023F0F8027B685B69DB00274913430B60D0
:10145C0015E0264B00221A60FFF76CFC386108E09F
:10146C00FFF768FC02463B69D31A022B01D9032310
:10147C007AE11D4B1B6803F00203002BF0D17B6853
:10148C001B6803F00803002B3AD07B689B69002B88
:10149C0019D0174B01221A60FFF74CFC386108E099
:1014AC00FFF748FC02463B69D31A022B01D90323F0
:1014BC005AE10D4B5B6A03F00203002BF0D00120C4
:1014CC0000F09AFA1CE00A4B00221A60FFF732FC7B
:1014DC0038610FE0FFF72EFC02463B69D31A022B52
:1014EC0008D9032340E100BF001002400000424233
:1014FC00800442429E4B5B6A03F00203002BE9D14D
:10150C007B681B6803F00403002B00F0A68000230B
:10151C00FB75974BDB6903F08053002B0DD1944B7B
:10152C00DB69934A43F08053D361914BDB6903F041
:10153C008053BB60BB680123FB758E4B1B6803F4A7
:10154C008073002B18D18B4B1B688A4A43F4807331
:10155C001360FFF7EFFB386108E0FFF7EBFB024687
:10156C003B69D31A642B01D90323FDE0814B1B6823
:10157C0003F48073002BF0D07B68DB68012B06D161
:10158C007B4B1B6A7A4A43F0010313622DE07B68A4
:10159C00DB68002B0CD1764B1B6A754A23F00103D8
:1015AC001362734B1B6A724A23F0040313621CE030
:1015BC007B68DB68052B0CD16D4B1B6A6C4A43F0C6
:1015CC00040313626A4B1B6A694A43F001031362FA
:1015DC000BE0674B1B6A664A23F001031362644BF2
:1015EC001B6A634A23F0040313627B68DB68002BDD
:1015FC0015D0FFF79FFB38610AE0FFF79BFB024613
:10160C003B69D31A41F28832934201D90323ABE0F0
:10161C00574B1B6A03F00203002BEED014E0FFF7CC
:10162C0089FB38610AE0FFF785FB02463B69D31A58
:10163C0041F28832934201D9032395E04C4B1B6A4B
:10164C0003F00203002BEED1FB7D012B05D1484B9F
:10165C00DB69474A23F08053D3617B68DB69002B3D
:10166C0000F08180424B5B6803F00C03082B61D0C7
:10167C007B68DB69022B46D13F4B00221A60FFF7D7
:10168C0059FB386108E0FFF755FB02463B69D31A5A
:10169C00022B01D9032367E0354B1B6803F0007361
:1016AC00002BF0D17B681B6AB3F5803F08D1304B1F
:1016BC005B6823F400327B689B682D4913434B60B5
:1016CC002B4B5B6823F474127B68196A7B685B6A2A
:1016DC000B43274913434B60274B01221A60FFF73A
:1016EC0029FB386108E0FFF725FB02463B69D31A5A
:1016FC00022B01D9032337E01D4B1B6803F0007349
:10170C00002BF0D02FE01C4B00221A60FFF712FBCD
:10171C00386108E0FFF70EFB02463B69D31A022B37
:10172C0001D9032320E0124B1B6803F00073002B3C
:10173C00F0D118E07B68DB69012B01D1012313E0A8
:10174C000B4B5B68FB60FB6803F480327B681B6AA5
:10175C009A4206D1FB6803F470127B685B6A9A426A
:10176C0001D0012300E0002318461837BD4680BD88
:10177C0000100240007000406000424280B584B00E
:10178C0000AF786039607B68002B01D10123D0E079
:10179C006A4B1B6803F007033A689A4210D9674BEF
:1017AC001B6823F0070265493B6813430B60634BCE
:1017BC001B6803F007033A689A4201D00123B8E092
:1017CC007B681B6803F00203002B20D07B681B682E
:1017DC0003F00403002B05D0594B5B68584A43F4C3
:1017EC00E06353607B681B6803F00803002B05D093
:1017FC00534B5B68524A43F460535360504B5B68E5
:10180C0023F0F0027B689B684D4913434B607B6867
:10181C001B6803F00103002B40D07B685B68012B35
:10182C0007D1474B1B6803F40033002B15D1012360
:10183C007FE07B685B68022B07D1414B1B6803F090
:10184C000073002B09D1012373E03D4B1B6803F09F
:10185C000203002B01D101236BE0394B5B6823F0B1
:10186C0003027B685B68364913434B60FFF762FAEF
:10187C00F8600AE0FFF75EFA0246FB68D31A41F201
:10188C008832934201D9032353E02D4B5B6803F05C
:10189C000C027B685B689B009A42EBD1274B1B6860
:1018AC0003F007033A689A4210D2244B1B6823F0CA
:1018BC00070222493B6813430B60204B1B6803F063
:1018CC0007033A689A4201D0012332E07B681B6817
:1018DC0003F00403002B08D0194B5B6823F4E0627F
:1018EC007B68DB68164913434B607B681B6803F00D
:1018FC000803002B09D0124B5B6823F460527B6801
:10190C001B69DB000E4913434B6000F021F80246C3
:10191C000B4B5B681B0903F00F030A49CB5C22FAE3
:10192C0003F3094A1360094B1B681846FFF7C0F90B
:10193C00002318461037BD4680BD00BF0020024072
:10194C0000100240B01A0008000000200400002023
:10195C0080B487B000AF0023FB600023BB60002382
:10196C007B6100237B6000233B611E4B5B68FB604B
:10197C00FB6803F00C03042B02D0082B03D027E0E8
:10198C00194B3B6127E0FB689B0C03F00F03174AD4
:10199C00D35C7B60FB6803F48033002B10D0114BBD
:1019AC005B685B0C03F00103114AD35CBB607B6882
:1019BC000D4A02FB03F2BB68B2FBF3F37B6104E05C
:1019CC007B680C4A02FB03F37B617B693B6102E0A1
:1019DC00054B3B6100BF3B6918461C37BD4680BCBC
:1019EC00704700BF0010024000127A00C01A0008B5
:1019FC00D01A000800093D0080B485B000AF7860B3
:101A0C000A4B1B680A4AA2FB03235B0A7A6802FB97
:101A1C0003F3FB6000BFFB685A1EFA60002BF9D180
:101A2C0000BF00BF1437BD4680BC704700000020CB
:101A3C00D34D621070B500260C4D0D4C641BA410D8
:101A4C00A64209D100F022F800260A4D0A4C641B6C
:101A5C00A410A64205D170BD55F8043B9847013639
:101A6C00EEE755F8043B98470136F2E7D41A000824
:101A7C00D41A0008D41A0008D81A000803460244E5
:101A8C00934200D1704703F8011BF9E7F8B500BF8A
:101A9C00F8BC08BC9E467047F8B500BFF8BC08BC43
:041AAC009E4670479B
:101AB00000000000000000000102030406070809FE
:101AC00002030405060708090A0B0C0D0E0F10107F
:041AD000010200000F
:041AD40031010008D4
:041AD8000D010008F4
:0C1ADC000024F4001000000001000000D5
:0400000508000C459E
:00000001FF
